:020000040800F2
:1000000050470020B50100082B390008B737000819
:10001000293900080D1D0008153F000800000000E8
:10002000000000000000000000000000A5390008EA
:100030005F1D0008000000002D390008A7390008E6
:10004000CF010008CF010008CF010008CF01000850
:10005000CF010008CF010008CF010008CF01000840
:10006000CF010008CF010008CF010008111D0008D2
:10007000CF010008CF0100081D1D0008291D000840
:10008000CF010008CF010008CF010008CF01000810
:10009000CF010008CF010008CF010008CF01000800
:1000A000CF010008CF010008CF010008CF010008F0
:1000B000CF010008CF010008253A0008CF01000851
:1000C000CF010008CF010008CF010008CF010008D0
:1000D000CF010008ED3E0008CF010008CF01000865
:1000E000CF010008CF010008CF01000800F002F89E
:1000F00000F050F80AA090E8000C82448344AAF172
:100100000107DA4501D100F045F8AFF2090EBAE86F
:100110000F0013F0010F18BFFB1A43F0010318473B
:100120005846000078460000103A24BF78C878C1CD
:10013000FAD8520724BF30C830C144BF04680C60ED
:10014000704700000023002400250026103A28BF35
:1001500078C1FBD8520728BF30C148BF0B60704739
:10016000662904F07882752900F05A8000207047D3
:100170001FB500F06DFD04000020002103F08EFF8C
:10018000401C60600020002103F072FFE0601FBD92
:1001900010B510BD01F01EF81146FFF7E9FF03F09E
:1001A000E5FE01F045F803B4FFF7F2FF03BC01F0F0
:1001B00089F800000948804709480047FEE7FEE744
:1001C000FEE7FEE7FEE7FEE7FEE7FEE7FEE7FEE707
:1001D00004480549054A064B70470000213A0008CB
:1001E000ED000008504100205047002050430020FF
:1001F000504300200FB41CB5084B06AA7B44694647
:100200000090059800F0C7FC04460020694600F005
:10021000D5FC20461CBC5DF814FB0000BD090000A5
:100220002DE9F0410646002410687529314616A5CF
:1002300010D0AFF30080002802DA404213A507E097
:1002400031688A0701D512A502E0490704D511A536
:10025000012401E0AFF3008000210A2206F1240707
:1002600009E0B0FBF2FCB0FBF2F302FB1C00303003
:1002700078541846491C0028F3D123462A463046B4
:10028000BDE8F04100F01ABA000000002D000000A7
:100290002B000000200000002DE9F0474FF0000A7D
:1002A00089460446C0F820A02046E1688847002817
:1002B00076D0252806D0D4E901219047206A401C39
:1002C0002062F1E7E168204600258847C4F81CA0B9
:1002D00006460027C4F818A02A2E09D0304603F09D
:1002E0003EFE38B304EB8708303EC8F8186019E0CA
:1002F00059F8041B204604EB87029161E1688847A6
:10030000012F064618D1E069002820DA25F02005E3
:100310001DE0D8F8180000EB800006EB40003038F4
:10032000C8F818002046E1688847064603F017FE23
:100330000028EED1012F0AD02E2E08D12046E168E8
:1003400088477F1C0646022F45F02005C4DBA069C4
:10035000002803DA404245F00105A061E80701D01A
:1003600025F01005B6B1A6F14100192802D82036B3
:1003700045F400654A463146204625604D46FFF764
:10038000EFFE58B1012806D0ED1D25F0070000F161
:10039000080989E704E005F1040985E730468AE7A2
:1003A000206ABDE8F08700000FB400B58DB010A939
:1003B000099000910B904FF0FF300A9000200C90B4
:1003C000064878440690064878446A4607900F9994
:1003D00009A800F00DFC0DB05DF814FB4B080000FF
:1003E000630800002DE9FF5F1D464FF0FF3B91467B
:1003F0004FF000085F46D5E90146A96901987F1CC6
:100400008847296A824688470028F6D1BAF1FF3F1B
:100410000CD0002E24F4C06419DD600614D5BAF1A6
:100420002B0F09D0BAF12D0F0ED103E0584604B0BE
:10043000BDE8F09F44F48064A96901987F1C884757
:10044000761E8246002E02DDBAF1300F03D0B9F1DC
:10045000000F26D032E0A969761E01987F1C44F473
:1004600000748847002E824605DDBAF1780F06D069
:10047000BAF1580F03D0B9F1000F10D01EE0B9F156
:10048000000F02D0B9F1100F18D1A969761E01989A
:100490007F1C24F4007488478246102002E0082064
:1004A00000E00A20814609E0A96908FB0908761ED8
:1004B00001987F1C44F4007488478246002E05DDB5
:1004C0004946504600F07FFB0028EDDAE9690198C3
:1004D0008847A00502D46FF00100A8E7E00725D106
:1004E000600613D5600502D5C8F1000000E0404663
:1004F00029680A1D2A600968220501D5087015E0DF
:10050000220701D5088011E008600FE02868011D6E
:1005100029600068210502D580F8008006E02107E7
:1005200002D5A0F8008001E0C0F8008038467EE7E0
:1005300010B5431C02E010F8011B71B18107FAD11C
:100540004FF0013202C88C1A8C4314EAC211F9D060
:10055000C01A0A0603D0C01E10BDC01A10BD0A047E
:1005600001D0801E10BD0902FCD0401E10BD40EA23
:10057000010370B59B072ED14FF00136042A2AD310
:1005800008C810C99D1B9D43121F15EAC61517D038
:10059000D8B2E1B2401A50EA056110D198B2A1B2C6
:1005A000401A50EA05410AD123F07F4024F07F41F0
:1005B000401A50EA052102D1180EA0EB146070BD5C
:1005C000A342DBD018BA21BA884201D9012070BDFC
:1005D0004FF0FF3070BD0AB9002070BD10F8013B2C
:1005E00011F8014B63B1A3420AD1521E08D010F892
:1005F000013B11F8014B1BB1A34201D1521EEDD1B9
:10060000181B70BD10B5203AC0F00B80B1E818502F
:10061000203AA0E81850B1E81850A0E81850BFF4EC
:10062000F5AF5FEA027C24BFB1E81850A0E818508B
:1006300044BF18C918C0BDE810405FEA827C24BFDF
:1006400051F8043B40F8043B08BF7047D20728BF6D
:1006500031F8023B48BF11F8012B28BF20F8023BBC
:1006600048BF00F8012B70474FF0000200B5134659
:1006700094469646203922BFA0E80C50A0E80C50C2
:10068000B1F12001BFF4F7AF090728BFA0E80C5073
:1006900048BF0CC05DF804EB890028BF40F8042B6C
:1006A00008BF704748BF20F8022B11F0804F18BFD9
:1006B00000F8012B70477047704770472DE9F047ED
:1006C0000D4699469246044600F1240801688806C2
:1006D00004D5E06921F01001216000E00120A8426A
:1006E00001DD471B00E00027A1697A1902EB090030
:1006F000081AA0612078C00602D42046AFF300801B
:10070000002608E0D4E901211AF806009047206A83
:10071000401C761C20624E45F4DB2078C0060AD5CA
:100720002046AFF3008006E0D4E901213020904755
:10073000206A401C2062381EA7F10107F4DC07E0A4
:10074000D4E9012118F805009047206A401C206276
:10075000281EA5F10105F3DC2046AFF300802078C8
:10076000000602D50220BDE8F0870120FBE77047B4
:100770002DE9FF4F0C461E464FF0FF378BB0D2E9F4
:100780000001DDF860800A908A46C1F30A5505B978
:100790003D46002108464FF00000BAF1000F00F47A
:1007A000400005DA00EB80004FF4400101EA500000
:1007B0004FEA9059B9F1010F00DDB9460A9850EAA5
:1007C0004A000ED044F61050A5F2FF3545432F14D1
:1007D000B8F1000F1ED07542291E1EDDC9F10002BE
:1007E0001CE0B8F1010F4FF0000001D0302103E010
:1007F000F24305E02154401CB042FBDB30460022AE
:10080000002121540B99C1F80880C1E900200FB0E4
:10081000BDE8F08FBD1B6D1CDEE74A4600DA694279
:1008200006A800F061FC06AB93E8070003AB83E881
:10083000070050460A9900F04CFD8DE80700A0F52E
:1008400000501F3800900398002D0ADD42F21F016E
:100850004A460844002303A90390684600F0B5FF08
:1008600009E0A0F500504A461F38002303A9039071
:10087000684600F0BFFF8DE807000004000C03D0BD
:100880004FF0FF30410800E01046B8F1000F03D0F0
:100890000022009215461EE0751E05D400F0DCF91A
:1008A000303262556D1EF9D5B3460122084302D09D
:1008B00000227F1C04E02078302801D100227F1E16
:1008C000002A099784D01DE0112D07DA00F0C4F941
:1008D000303262556D1C50EA0102F5D1084302D056
:1008E0000098C8B10EE00021681E05E0235C625C40
:1008F00063542254401E491C8142F7DBAB46A81BBF
:10090000401E0990002004F80B000B98099AC0F8CB
:100910000880C0E9002B7AE711264FF0000857E75E
:100920002DE9F04F88460446D21D22F0070191B010
:10093000D1E90001CDE90A0103F0EDFA02460B9876
:10094000C00F01D02D2007E02068810701D52B20A2
:1009500002E0202101EAC000032A099001D0072A01
:1009600005DB03464146204600F0C4F90BE1207840
:10097000800601D5E06900E00620B8F1650F8146E8
:1009800006D0B8F1660F18D0B8F1670F70D131E01A
:100990000020B9F1110F009001DB112301E009F1F2
:1009A00001030AAA01A90CA8FFF7E2FEDDE90C7019
:1009B000002609F10105834647E001204B460090DF
:1009C0004FF000470AAA01A90CA8FFF7D1FEDDE904
:1009D0000DB00C995D46002610B909F101000D1803
:1009E000B9EB050003D4C0F1FF3609F10105A5EB11
:1009F00009002BE0B9F1010F01DA4FF001090020E5
:100A0000B9F1110F0090484601DD112300E00346C3
:100A10000AAA01A90CA8FFF7ABFEDDE90C704D4650
:100A200000268346207800070AD4AB4500DA5D46ED
:100A300001A8012D04DD411911F8011C302907D04E
:100A40004F4502DA17F1040F04DA012082460FE065
:100A50006D1EEEE7002F02DCED1B3E4403E0781C28
:100A6000A84200DD7D1CB81B00F1010A4FF00047D1
:100A70002078000703D4AA4501DB4FF0FF3A00219C
:100A8000B7F1004F0DF143088DF8431024D0022038
:100A90002B23002F01DA7F422D230A21021EA0F111
:100AA000010000DC5FB197FBF1FC97FBF1F201FB69
:100AB0001C7C17460CF1300C08F801CDEEE7A8F1CC
:100AC000010003702188090501D5452100E0652159
:100AD000A0F1010800F8011C09980FA9A1EB080773
:100AE000FF1D00B10120411901EBEA70A1693844F2
:100AF000081A401EA0612078C00602D42046AFF339
:100B00000080099828B1D4E901219047206A401C4F
:100B100020622078C00622D52046AFF300801EE078
:100B2000002E04DBB34502DD01A8805D00E030202B
:100B3000D4E901219047206A401C2062761CAAF16A
:100B400001005FEA000A0AD100F082F8C06801687B
:100B5000405CD4E901219047206A401C2062281E95
:100B6000A5F10105DCDC07E0D4E9012118F8010B4F
:100B70009047206A401C2062381EA7F10107F3DC71
:100B80002046AFF30080032011B041E601694A1C02
:100B900002610878704700B58FB0CDE901310021BE
:100BA000059105497944CDE9031011466846FFF7E0
:100BB00073FB0FB000BD0000E5FFFFFF0A6802F8FD
:100BC000010B0A6070473A2800D2303820F020022A
:100BD000412A01D3A2F13700884201D34FF0FF3000
:100BE000704700000268114413780160184670478E
:100BF000D160054979445161044979441162002169
:100C00001161114600F0B6B8EDFFFFFFE5000000EE
:100C1000426842B1016811F8013B23B1521EC0E99C
:100C20000012184670470121C160881E7047426853
:100C30005AB1C368016843B983688B4205D0491E25
:100C4000521CC0E90012002070474FF0FF3070477F
:100C5000004870471041002030B5B0F10A024FEA59
:100C6000900E71F100034EEA817EB0EB0E0061EB55
:100C700091014FEA101E4EEA017E10EB0E0041EB8F
:100C800011114FEA102E4EEA016E10EB0E0041EBEF
:100C900011214FEA104E4EEA014E10EB0E0041EBCF
:100CA0001141401841F100014FEAD00040EA417083
:100CB0004FEAD10110EB80054FEA810444EA9074B9
:100CC00044EB01046D1944EB0404521BA3414FF0A3
:100CD000000348BF0A3200D530BD401C41F100017D
:100CE00030BD10B5044600F09BFA0068005D00F0CE
:100CF000010010BD2DE9F0411F460446032601689E
:100D0000072A01F4006004DB08B116A505E016A56A
:100D100003E008B115A500E015A521F01000206042
:100D2000A069C01EA0610FB1401EA0612046AFF3B4
:100D300000804FB1D4E9012138469047206A401C19
:100D40002062C01C206206E0206AFAE7D4E9012193
:100D500015F8010B9047761EF8D22046AFF30080BD
:100D6000BDE8F0814E414E006E616E00494E460076
:100D7000696E66002DE9F34F4FF0000A0C465646A7
:100D80008DB001200C9001F10C000B9062690B9862
:100D900001219047051E2DD0252D2CD0216A884792
:100DA000C0B162690B9801219047216A88470028E9
:100DB000F7D16269411E0B98904700E0761CA1694B
:100DC0000D988847216A88470028F7D1E1690D9876
:100DD0008847DBE7A1690D988847A842074601D1FB
:100DE000761CD3E7E1690D9888477F1C02D1BAF1E0
:100DF000000F6FD06BE162690B9800273D463946C2
:100E000090472A2804D162690B9801219047012557
:100E1000DFF8D08262690B9801219047A0F1300180
:100E20000A290AD24745E5DC07EB870100EB4107B9
:100E3000303FDFD445F01005ECE7E90601D46FF050
:100E400000476C280AD04C2814D0682815D06A288E
:100E50000DD074281CD07A281AD01DE062690B9836
:100E6000012190476C2802D045F0040514E045F0BC
:100E700002050DE045F020050AE062690B980121AA
:100E80009047682802D045F0080505E045F4006564
:100E900062690B9801219047C4E9015765283DD04C
:100EA00019DC58287AD00CDC452837D004DC2528FA
:100EB00026D041289ED131E046282FD0472899D10D
:100EC0002CE05B2877D0612828D063287CD0642868
:100ED00023D15AE0F6E06F2848D008DC66281DD000
:100EE00067281BD0692821D06E2816D127E07028EA
:100EF00045D0732868D0752847D078280DD14DE0AB
:100F0000A1690D988847252805463FF469AFE16936
:100F10000D9888476D1C3FF46AAFD8E00D992346C1
:100F20006A466FF00100AFF30080C5E045F0400075
:100F300023464FF000026060A80736D43EE0E80781
:100F40007FF447AF2068011D21600068290501D5A5
:100F500006701BE7290701D5068017E7A90703D507
:100F6000F117C0E9006111E706600FE745F04000A6
:100F700023464FF008026060A80716D41EE040F632
:100F80000E0125EA0100606016E045F040002346AE
:100F90004FF00A026060A80707D40FE045F0400058
:100FA0006060A80708D5234610220D996FF0010054
:100FB000AFF3008080E007E0102223460D996FF028
:100FC0000100FFF70FFA77E04FF0000963284F4662
:100FD000C8464B46CB4602D05B2806D038E0E80630
:100FE00001D40120A060012732E06269D4F80CB07E
:100FF0000B98012190475E2807D14FF0010949461F
:101000006269D4F80CB00B989047216939B9002176
:101010000A4603AB43F82120491C0829FADBD8B360
:10102000216949B308F1010862690B9801219047D1
:101030005D28F4D1B9F1000F09D0002003A951F8BF
:101040002020D24341F82020401C0828F7DB03ABC6
:101050002069002820794FEA40701ED05B46224666
:10106000CDF80080CDE901970D9900286FF00100BF
:1010700020DAAFF300801FE0C11703AA00EBD161B3
:101080004B1121F01F0102EB8302411A136801206A
:10109000884003431360C7E719E00D9922460028F2
:1010A0006FF00100009702DAAFF3008004E0AFF3C5
:1010B000008001E0AFF3008000280ADA401C06D16E
:1010C0000C9820B14FF0FF300FB0BDE8F08F5046C4
:1010D000FAE7E90701D10AF1010A064400200C9061
:1010E00054E60000CCCCCC0C2DE9F04781461646E6
:1010F0008AB0354878440DC88DE80D0032487844F0
:10110000801C03AC0DC884E80D0041F69B300844F8
:10111000372190FBF1F290FBF1F5A5F1800501FB81
:1011200012041B3C02D56442012000E00020DFF8DD
:1011300098A080460027FA44AAF1BE0A0EE0E00714
:101140000AD03246684607EB470101230AEB8101CA
:1011500000F050FB8DE8070064107F1C002CEED1DE
:10116000194F7F44AE3F19E0E80715D007EB041094
:101170000DF1180A90E80E008AE80E00C068F042EF
:1011800001D1981908903246012306A903A800F05E
:1011900031FB03AB83E807006D10641C002DE3D125
:1011A0004FF0010332466946B8F1000F03A802D0A0
:1011B00000F00BFB01E000F01DFBC9E90001C9F8DC
:1011C00008200AB0BDE8F0871C36000000487047D0
:1011D000F04000207546FFF7F9FFAE46050069466E
:1011E000534620F00700854618B020B5FEF7F0FF03
:1011F000BDE820404FF000064FF000074FF0000818
:101200004FF0000B21F00701AC46ACE8C009ACE898
:10121000C009ACE8C009ACE8C0098D4670470000C1
:1012200010B5FFF715FD001D10BD00BF712E0000A9
:1012300010B50446AFF300802046BDE81040FEF72D
:10124000B2BF00004FF0013C50F8042B51F8043BB2
:101250009A4221D1A2EB0C03934313EACC1317D18A
:1012600050F8042B51F8043B9A4215D1A2EB0C0321
:10127000934313EACC130BD150F8042B51F8043BE1
:101280009A4209D1A2EB0C03934313EACC13DBD0AF
:101290004FF00000704700BFD01A01BAB1FA81F1D7
:1012A00001F0180122FA01F0CB40C1F12001DBB2BC
:1012B000C0B2C01A2CFA01F3D11A914311EAC3113A
:1012C000E6D1704701491820ABBEFEE726000200B8
:1012D00070475FEA400C08BF91F0000F4FEA8C2383
:1012E0004FEAC12243EA51514FEA1C5018BF00F5A2
:1012F000F0404FEA300018BF41F000415FEA6C5CFB
:1013000000F02980BCF1FF3F08BF40F080407047EB
:10131000130C06BF12044FF0100C4FF0000C130E0C
:1013200004BF12020CF1080C130F04BF12010CF1E0
:10133000040C930F04BF92000CF1020CD30F04BFF6
:1013400052000CF1010C11464FF00002A0F11F00F9
:10135000A0EB0C00704711F0004F08BF704731F050
:1013600000413FF4D5AF0B0C06BF09044FF0100C41
:101370004FF0000C0B0E04BF09020CF1080C0B0F10
:1013800004BF09010CF1040C8B0F04BF89000CF1A0
:10139000020CCB0F04BF49000CF1010CCCF120036F
:1013A000A0EB0C0022FA03F302FA0CF241EA03016B
:1013B00000F10100704720F07F4C80EA030023F029
:1013C0007F47ACEB070303F57C5300F0004003F1CB
:1013D000FF032DE980494FEA154B09B44FEA144346
:1013E00025EA0B4E24EA03480FF2042606EB1327E6
:1013F00049083E785FEA320203FB0667C7F500073B
:1014000007FB06F64FEA54374FEAD64606F10206C6
:1014100007FB066CCCF1005C4FEA1C472CEA074C3A
:1014200007FB06F40CFB06F504EB15464FEA96168F
:1014300034BF00204FF000404FEAD13706FB07FCD5
:101440004FEA1C4C0CFB0BF7D21B03FB0CF761EBB8
:1014500007010CFB0EF7B0EB074072EB17420CFBD9
:1014600008F734BFA2EB0742B2EB074261EB17412A
:101470004FEA0C444FEA910706FB07FC4FEA1C4C6D
:101480000CFB0BF7B0EBC74072EB573203FB0CF7CA
:1014900034BFA2EBC742B2EBC74261EB57310CFB42
:1014A0000EF7B0EBC70072EB57720CFB08F734BFB6
:1014B000A2EBC702B2EBC70261EB5771039F4FEA81
:1014C000816141EA921104EBCC044FEAD1374FEA33
:1014D000826206FB07FC42EA90124FEA80604FEA04
:1014E0001C4C0CFB0BF7D21B03FB0CF761EB070149
:1014F0000CFB0EF7B0EB074072EB17420CFB08F742
:1015000034BFA2EB0742B2EB074261EB17414FEA4F
:101510008C554FEA910704EB9C2406FB07FC4FEA2D
:101520001C4C0CFB0BF7B0EBC74072EB573203FBC4
:101530000CF734BFA2EBC742B2EBC74261EB5731A5
:101540000CFB0EF7B0EBC70072EB57720CFB08F701
:1015500034BFA2EBC702B2EBC70261EB577115EBC8
:101560004C254FEA816141EA92114FEA82624FEACB
:10157000D13742EA901206FB07FC44F100044FEA1F
:1015800080604FEA1C4C0CFB0BF7D21B03FB0CF7E3
:1015900061EB07010CFB0EF7B0EB074072EB174253
:1015A0000CFB08F734BFA2EB0742B2EB074261EB3A
:1015B000174115EB1C154FEA813141EA92414FEA80
:1015C000823242EA90424FEA80304FEA0C7644F190
:1015D000000448EA03434EEA0B484FF0000EB2EB1A
:1015E000080C71EB030724BF624639464EEB0E0E22
:1015F0004FF0000B0018524149414BEB0B0BB2EB83
:10160000080C71EB03077BF1000B24BF62463946DF
:101610004EEB0E0E4FF0000B0018524149414BEBC0
:101620000B0BB2EB080C71EB03077BF1000B24BF33
:10163000624639464EEB0E0E51EA020718BF46F0DD
:10164000010616EB0E7655F1000254F1000103D5A8
:10165000BDE88901BDE80088BDE88901BDE8004812
:10166000B619524141EB0101A3F10103704780809B
:101670007F7E7D7C7B7A79787776767574737271EC
:1016800071706F6E6E6D6C6C6B6A6A6968686766A4
:1016900066656464636362616160605F5F5E5E5D36
:1016A0005D5C5C5B5B5A5A595958585757565655AA
:1016B00055555454535352525251515050504F4F0C
:1016C0004F4E4E4D4D4D4C4C4C4B4B4B4A4A4A495C
:1016D000494948484847474747464646454545449F
:1016E0004444444343434342424242414141002B2C
:1016F0009C4630D477002BD01CB54FEA370703B493
:101700004FF010004FF01001BAF1000F06D0BCF1FD
:10171000000FDCBF40F0080040F008014FF000006F
:101720000FBCBDE810400BF1010BBBF1010F08BF6E
:101730005FEA170722BF12F1010211F101014FF018
:10174000004143F1000300F0004043EA000070470D
:10175000F9D35708D0E746EA064613F1400F4FEA9F
:1017600016461FDD13F1200FDFBF16430A46002186
:1017700020335B42BED0C3F1200746EA064602FA98
:1017800007F74FEA164646EA0706C3F1200722FA92
:1017900003F201FA07F721FA03F14FF0000342EADE
:1017A0000702A7E746EA020646EA06464FEA164659
:1017B00046EA0106BCBF46EA0646360C4FF0000377
:1017C0004FF000024FF0000194E72DE9804C9A465B
:1017D000934670B491E8380007C831EA400C48BF1E
:1017E00034EA430C03D5FFF7E6FDFFF780FFF0BCBA
:1017F000BDE8008C2DE9804C9A46934670B491E880
:10180000380007C810F0804F08BF13F0804F03D195
:1018100000F005F8FFF76BFFF0BCBDE8008C20F08E
:101820007F4780EA030023F07F4C07EB0C03A3F50E
:101830007C5300F00040A3F1FE0392F0000F00F093
:10184000B38095F0000F00F077802DE901494FEA51
:1018500011404FEA144621EA004800FB06FC24EA46
:10186000064708FB06F607FB08F800FB07F718EB2E
:1018700006484CEB164C4FEA124B18EB07484FEA60
:1018800015464CEB174022EA0B4E0BFB06FC25EAF3
:1018900006470EFB06F607FB0EFE0BFB07F71EEBDB
:1018A000064E4CEB164C4FF000061EEB074E4CEB71
:1018B000174B18EB0B0840F1000018EB0E0B58EB20
:1018C000000840F100008F1A4FF000013CBFC943EF
:1018D000661B14BFB5EB040C00213CBFC943F61BCB
:1018E0004FEA17444EEA8E0E27EA04454FEA1C479A
:1018F00004FB07622CEA074C05FB07F70CFB05F617
:1019000004FB0CFC16EB074642EB174216EB0C46A9
:1019100042EB1C421BEB060658EB0202414146EA31
:101920009E0601D5BDE80189B619524141EB01017E
:10193000A3F10103BDE801894FEA14454FEA1147BD
:1019400024EA054621EA074C05FB07F406FB07F7E6
:101950000CFB06F105FB0CFC11EB074144EB1744B3
:101960004FEA124711EB0C4144EB1C4422EA074CAE
:1019700005FB07F206FB07F70CFB06F605FB0CFC64
:1019800016EB074642EB174216EB0C4642EB1C45A2
:101990006A1854F1000148BF7047B619524141EB33
:1019A0000101A3F10103704795F0000F37D04FEA12
:1019B00011424FEA144721EA024624EA074C02FB8F
:1019C00007F106FB07F70CFB06F402FB0CFC14EB1B
:1019D000074441EB17414FEA154714EB0C4441EB28
:1019E0001C4125EA074C02FB07F506FB07F70CFB39
:1019F00006F602FB0CFC16EB074645EB174516EB0B
:101A00000C4645EB1C42121951F1000148BF7047CA
:101A1000B619524141EB0101A3F1010370474FEAAE
:101A200014454FEA114724EA054621EA074C05FB15
:101A300007F106FB07F70CFB06F24FF0000605FB6B
:101A40000CFC12EB074241EB174112EB0C4251EB3D
:101A50001C4148BF7047921841EB0101A3F10103FB
:101A60007047000070B5044600688168C943C90723
:101A700017D1816821F00101816000F02DFE05463B
:101A80000AE000BF00F028FE401B022804D92068AD
:101A90008068C043C00706D020688068C043C00784
:101AA000F0D0002070BDA06A40F01000A062E06A93
:101AB00040F00100E062012070BD10B50146406AAF
:101AC000826A12F0500F05D0006A026BBDE8104028
:101AD00008461047816A41F4007181620168896893
:101AE000C1F3424107290CD1017B51B9816A21F42C
:101AF00080718162816AC90403D4816A41F0010165
:101B0000816200F019FA10BD10B5406A816A41F097
:101B100040018162C16A41F00401C16200F00EFA25
:101B200010BD10B5406A00F008FA10BDF8B50026E7
:101B30000446009600688168C943C9072DD08168B2
:101B400041F001018160164816490068B0FBF1F0D0
:101B500000E0401E00900028FBD100F0BDFD0546CE
:101B600016E000BF00F0B8FD401B022810D9206825
:101B70008068C043C0070BD0A06A40F01000A0628C
:101B8000E06A40F00100E06284F824600120F8BDC2
:101B900020688068C043C007E4D10020F8BD000081
:101BA0001800002040420F002DE9FF4FADF21C4D00
:101BB0000E46154618210DF58060DDF85094FEF7AD
:101BC00053FD002440F6FF72274621460AE000BF7D
:101BD00036F81100904200D20246A04200D90446D5
:101BE0000744491CA942F3D3104602F0DFFB4946E3
:101BF00002F0F0FBDFF81081414602F0F9FACDF86F
:101C00000C04204602F0D2FB494602F0E3FB4146B9
:101C100002F0EEFACDF81004DDF80C1402F0A6FC88
:101C2000CDF80404284602F0C1FB0446384602F011
:101C3000BDFB214602F0DCFA8346494602F0CAFBAE
:101C4000414602F0D5FA4FF0FF380027C146012483
:101C5000EA46CDF8080427E0584602F08BFB06EB75
:101C6000440136F8142031F8021C091A101A09B27E
:101C700000B2002917DA002815DBB9F1FF3F00D1C7
:101C8000A146B8F1FF3F0DD0FF2F0BD8A4EB080001
:101C900002F08CFBDDF8281402F0AAFA4AF82700BB
:101CA0007F1CBFB2A046641CAC42D5D3ADF81474FF
:101CB000F7B100252C46564607E000BF56F8241021
:101CC000284602F033FA0546641CBC42F6D3384677
:101CD00002F06CFB0146284602F08AFA0146B0F594
:101CE000000F05DB4FF07E5002F082FACDF80004C1
:101CF00018220DF58061DDF81C04FEF783FC0DF25F
:101D00002C4DBDE8F08F000000F07F45FEE700009D
:101D1000014800F0E1BA0000CC3E0020014800F08C
:101D2000DBBA000064400020014800F0D5BA000092
:101D30002040002030B590F840500124AC40C56BE5
:101D40006C60046863604368102B036803D099607B
:101D50000068C26030BD9A600068C16030BD7047E5
:101D600072B6FEE7F8B500250446009590F8240009
:101D700001280BD0012084F824002046FFF772FED2
:101D80002046FFF7D3FE060002D050E00220F8BD47
:101D9000A06A20F4885040F00200A062022000F007
:101DA00065FD25490968B1FBF0F0400000E0401EE8
:101DB00000900028FBD12068816841F00801816013
:101DC00000F08AFC074608E000F086FCC01B0A28E9
:101DD00003D920688068000715D420688068000750
:101DE000F2D42068816841F00401816000F074FC45
:101DF000074612E000F070FCC01B0A280DD92068CD
:101E00008068400709D5A06A20F0020040F0100069
:101E1000A06284F824500120F8BD20688068400743
:101E2000E8D4A06A20F0020040F00100A06284F82B
:101E300024503046F8BD000018000020F8B50024FA
:101E4000009490F824202546012A12D0012280F81F
:101E500024204A681F23072A0DD20668776B521E7A
:101E600002EB820293409F430B6893401F437763CA
:101E700019E00220F8BD06680D2A0AD2376BD21F7E
:101E800002EB820293409F430B6893401F433763EA
:101E900009E0F76A0D3A02EB820293409F430B6818
:101EA00093401F43F7620A68072306680A2A0AD389
:101EB000F7680A3A02EB420293409F438B689340D3
:101EC0001F43F76008E0376902EB420293409F43EB
:101ED0008B6893401F4337610A68102A01D0112A8A
:101EE00020D1124B02689A4217D193681B0219D471
:101EF000936843F4000393600968102912D10C49D8
:101F00000C4A0968B1FBF2F101EB8101490000E0E4
:101F1000491E00910029FBD104E0816A41F02001B3
:101F20008162012480F824502046F8BD002401403D
:101F30001800002040420F007047704770470000B3
:101F40002DE9F0414FF0000704003D467ED0A06A25
:101F5000002628B9E66284F82460204600F07EF866
:101F60002046FFF77FFDA16AC90600D420B1A06A10
:101F700040F01000A06269E0A16A21F4885141F0AC
:101F80000201A1626268E169237B0A4347EA4301D7
:101F90000A43A1684FF48077B94209D0012907D0DC
:101FA0005FF0000194F814C0BCF1010F02D00AE008
:101FB0003946F7E7F3B1A36A43F02003A362E36A6B
:101FC00043F00103E3622368D3F804C02CF4694CA6
:101FD0004CEA010CC3F804C021688B68DFF870C0BC
:101FE00003EA0C0313438B60A168B9420BD00129AB
:101FF00009D00CE0DFF85CC0A3690CEB43330B4362
:1020000043F40061DFE7218A0D05A5F580152168FD
:10201000CB6A23F470032B43CB62216889680E4B93
:102020001940914208D1E662A16A21F0020141F013
:102030000101A162BDE8F081A06A20F0020040F039
:102040001000A062E06A40F00100E0620120F1E7C8
:10205000FDF7E1FF00E0FFFFFE0E1FFF70B586B049
:1020600000260546009601960296039600681A49D6
:1020700088422FD11949886940F4007088618869C5
:1020800000F400700490886940F004008861886959
:10209000694600F00400049008200090032001909D
:1020A0000F4800F029FA104C0E48C4E900068020C1
:1020B000C4E9026040002061800060612020A061CE
:1020C000C001E061204600F0B1F908B1FFF748FE19
:1020D0002C62656206B070BD002401400010024011
:1020E0000008014008000240CC3E00202DE9F047E6
:1020F000894604463B4900683B4F0E1D9046884286
:1021000001D0B84207D1306810F4702F03D00125F8
:102110002846BDE8F08794F8240001280CD001205F
:1021200084F824002046FFF701FD05004FF0000071
:1021300004D084F82400EBE70220EAE7A16A40F625
:102140000162914341F48071A1622168B94218D1C2
:10215000326812F4702F14D0A16A41F48011A16288
:102160003168490505D5A16A21F4005141F4805137
:10217000A162A16AC9040AD5E16A21F00601E162FF
:1021800006E0A26A22F48012A2624968E9E7E062EE
:1021900084F82400216A15488862216A1448C862BC
:1021A000216A1448086321686FF002000860206803
:1021B000816841F480718160216843464A464C3110
:1021C000206A00F061F920688168C1F34241072963
:1021D000816803D041F48011816099E741F4A00146
:1021E000FAE700000024014000280140BB1A000863
:1021F000231B0008091B000810B590F821100022CD
:10220000022905D00421816380F82020012010BD1F
:1022100001680B6823F00E030B6001680B6823F064
:1022200001030B6090F84030C46B012101FA03F305
:10223000636080F8211080F82020104610BD000057
:1022400010B590F821100024022903D004218163E5
:1022500001243DE001680A6822F00E020A6001686C
:102260000A6822F001020A601A4A0168914201D10B
:10227000012121E0174A1432914201D110211BE0C3
:10228000144A2832914201D1891515E0114A3C3295
:10229000914201D189140FE00E4A5032914202D18D
:1022A0004FF4803108E00B4A6432914202D14FF47E
:1022B000801101E04FF08071064A083A5160012117
:1022C00080F82110002180F82010416B01B188476F
:1022D000204610BD080002402DE9F05FC16B0C687C
:1022E00001680B68D0F840C0042202FA0CF2494D94
:1022F000DFF824A1494E4A4FDFF828B1DFF828E182
:1023000022422CD05A072AD50A68920603D40A68BA
:1023100022F004020A600168A94201D1042219E0F6
:10232000514501D1402215E0B14202D14FF4806203
:1023300010E0B94202D14FF480420BE0594502D17E
:102340004FF4802206E0714502D14FF4800201E093
:102350004FF080622F4908394A60C16A3BE04FF074
:10236000020808FA0CF818EA040F4FF000094FF0C1
:10237000010235D05FEA837832D50B689B0605D41D
:102380000B6823F00A030B6080F821200168A94242
:1023900001D1022219E0514501D1202215E0B142BC
:1023A00002D14FF4007210E0B94202D14FF4005252
:1023B0000BE0594502D14FF4003206E0714502D1DD
:1023C0004FF4001201E04FF00072124908394A60E0
:1023D00080F82090816A00291AD0BDE8F05F084794
:1023E000082505FA0CF5254212D01B0710D50B68FD
:1023F00023F00E030B6090F84010C36B02FA01F15A
:102400005960826380F8212080F82090016BE2E718
:10241000BDE8F09F080002401C000240300002406E
:1024200044000240580002406C00024030B528B31E
:1024300008C8134914221944B1FBF2F18900C163A1
:1024400010498163022141771A6843F6F0718A438B
:10245000D0E900142143D0E902452C43214304690B
:1024600021434469214384692143114319600021B8
:102470004163012242770177084630BD012030BD1B
:10248000F8FFFDBF0000024070B5044690F8200040
:10249000002501280CD0012084F8200094F8216048
:1024A0000020012E06D084F820000225284670BDA9
:1024B000022070BD022684F82160A06320680668AF
:1024C00026F0010606602046FFF734FCE06A00288B
:1024D0002068016802D041F00E0106E021F00401FD
:1024E00001602068016841F00A010160206801680C
:1024F00041F001010160D9E72DE9F84FDFF8B8910B
:102500000024A9F1040B23460F2709F1040AABF1BB
:10251000040EC9E00125A5402A40AA427DD1674E9C
:10252000D1F804C0ACEB0608B44532D014DCBCF1E1
:10253000030F3AD009DCBCF1000F2AD0BCF1010F27
:102540001CD0BCF1020F31D11DE0BCF1110F17D02E
:10255000BCF1120F2AD119E0B8F5881F19D006DC9A
:10256000B8F5803F15D0B8F5801F1FD111E0B8F540
:10257000001F0ED0B8F5041F18D10AE0CB6815E093
:10258000CB681B1D12E0CB6808330FE0CB680C331F
:102590000CE08B682BB1012B4FF0080303D0456191
:1025A00004E0042302E0056100E00023FF2A01D8D3
:1025B000064601E000F104064FEA840501D9A5F1C1
:1025C0002005D6F8008007FA05FC28EA0C0803FA73
:1025D00005F548EA0508C6F800804D68ED0062D5AB
:1025E000374DAE6946F00106AE61AD6924F00306D1
:1025F00005F001050095334D06EB050CDCF808509D
:10260000A607360F07FA06F825EA0805DFF8B880AE
:10261000404503D14FF0000817E044E0DFF8AC80FC
:10262000404502D14FF001080FE0DFF8A48040459B
:1026300002D14FF0020808E0DFF89880404502D14F
:102640004FF0030801E04FF0040808FA06F848EAE2
:102650000508CCF808804D68D9F80060ED024D46B9
:1026600001D5164300E096432E604D68DAF800600D
:10267000AD02554601D5164300E096432E604D68E5
:10268000DBF80060AD035D4601D5164300E09643DC
:102690002E604D68DEF80060ED03754601D51643E7
:1026A00000E096432E60641C0D682A46E5407FF4E6
:1026B00031AFBDE8F88F00000804014000001110A0
:1026C000001002400000014000080140000C0140E1
:1026D000001001400014014001488068704700006C
:1026E0000C00002002488168027811448160704724
:1026F0000C000020074810B5016841F0100101608E
:10270000032000F0A1F80F2000F006F800F050F8C8
:10271000002010BD0020024030B505461F4887B09C
:10272000C16941F00401C161C06906A900F004005B
:10273000009001A800F0F8F90498B0B100F014FA84
:1027400040001749174AB0FBF1F11748491E0260D3
:10275000416040F2E7320021C0E9032181608161DC
:1027600000F00EFC040003D015E000F0FDF9E8E7EE
:102770000D4800F06FFC04000DD11E2000F036F86B
:10278000102D07D2002229461E2000F03DF80748F0
:10279000056000E0012407B0204630BD0010024073
:1027A00040420F0000080040A84000201000002018
:1027B0000C4808B5816941F001018161816901F02E
:1027C00001010091C16941F08051C161C06900F00F
:1027D000805000900448416821F0E06141F00071B0
:1027E000416008BD0010024000000140002809DBE4
:1027F00000F01F02012191404009800000F1E0201B
:10280000C0F8001170470000F0B40E4B1B680C4676
:10281000C3F30223C3F10705042D00D90425191DB4
:10282000072901D2002300E0DB1E012606FA05F18C
:10283000491E214099409E40761E16403143F0BC0F
:1028400001F07DBB0CED00E0064900F007020868CE
:102850004FF6FF03184040EA0220034A1043086085
:10286000704700000CED00E00000FA0510B50146CD
:102870000020234C012922D0022939D010291DD152
:1028800061682268D20119D51E48C1F38342C90389
:10289000805C0AD561681B4AC1F34041921E515CBD
:1028A000194AB2FBF1F1484301E018494843616815
:1028B000490203D440000321B0FBF1F010BD226AAD
:1028C000C2F30121012903D1920701D5C80310BD2C
:1028D000022905D1626A920702D549F6404010BD2F
:1028E0000329FCD121688903F9D54FF2244010BD9A
:1028F00000F04AF96168C1F38131491C4900DBE706
:10290000001002406E46000800127A0000093D00E7
:102910002DE9F84305460078354CC00754D0E069EE
:102920000026C00008D4E06940F08050E061E06912
:10293000012600F0805000902E480168C90512D48D
:102940000168804641F480710160FFF7C5FE0746CB
:1029500005E000BFFFF7C0FEC01B642823D8D8F8ED
:102960000000C005F6D5206A10F4407021D0A98877
:1029700001F4407181421CD0206A1F49012220F4D9
:1029800040700A6000220A602062C00711D0FFF781
:10299000A3FE074641F2883808E000BFFFF79CFE1F
:1029A000C11B414502D90320BDE8F883206A800796
:1029B000F4D5206A696820F44070084320621EB193
:1029C000E06920F08050E0612878800705D56068D4
:1029D000A96820F44040084360602878C00605D507
:1029E0006068E96820F48000084360600020DBE74D
:1029F0000010024000700040400442422DE9F047C0
:102A00000F46050061D0434E306800F00700B84221
:102A100009D2306820F0070038433060306800F099
:102A20000700B84251D128683B4C810712D54007B6
:102A300003D5606840F4E06060602878000703D543
:102A4000606840F4605060606068A96820F0F00041
:102A5000084360602878C00728D06868012810D033
:102A60002168022810D0890700292EDA616821F038
:102A7000030101436160FFF72FFE804641F2883970
:102A80000DE021688903EFE78901EDE7FFF724FEF8
:102A9000A0EB0801494502D90320BDE8F087606832
:102AA000696800F00C00B0EB810FEFD1306800F0E6
:102AB0000700B8420BD9306820F007003843306077
:102AC000306800F00700B84201D00120E5E728781F
:102AD000400705D56068E96820F4E060084360605D
:102AE0002878000706D56068296920F4605040EA1C
:102AF000C100606000F058F86168084AC1F3031132
:102B0000515CC8400649086006480068FFF704FEAB
:102B10000020C2E700200240001002407E4600086C
:102B200018000020100000200F2202600C4A536899
:102B300003F003034360536803F0F00383605368BA
:102B400003F4E063C36052684FF4E06303EAD20227
:102B500002610448006800F0070008607047000048
:102B600000100240002002400448054900684968FE
:102B7000044AC1F30221515CC8407047180000208C
:102B8000001002408E460008044805490068496864
:102B9000044AC1F3C221515CC840704718000020AC
:102BA000001002408E4600080E4A51680E4801F09F
:102BB0000C03042B11D0082B0FD10C48C1F3834315
:102BC000C903C05C0AD55168084AC1F34041921E4E
:102BD000515C054A5043B0FBF1F07047044948434B
:102BE000704700000010024000127A005C460008A6
:102BF00000093D002DE9F84F040070D02078C04D49
:102C0000C00749D06868C0F38100012807D0686810
:102C1000C0F38100022809D16868C00306D528687E
:102C2000800339D560680028E7D035E06068B0F5EA
:102C3000803F0BD010B1B0F5A02F11D0286820F440
:102C400080302860286820F4802002E0286840F462
:102C500080302860606890B1FFF73EFD06460AE0CC
:102C6000286840F480202860F0E700BFFFF734FDBB
:102C7000801B642873D828688003F7D50CE0FFF721
:102C80002BFD064605E000BFFFF726FD801B6428EC
:102C9000F0D828688003F7D420789A4E80074FF048
:102CA00001094FF0000839D5686810F00C0F07D003
:102CB0006868C0F38100022809D16868C00306D49F
:102CC0002868800714D52069012808D110E0206900
:102CD000B0B1C6F80090FFF7FFFC074605E00AE137
:102CE000FFF7FAFCC01B0228C4D828688007F7D574
:102CF0002868616920F0F80040EAC10028600DE012
:102D0000C6F80080FFF7E8FC074604E0FFF7E4FCA4
:102D1000C01B022823D828688007F7D42078000732
:102D20002CD57948A169D9B1C0F80090FFF7D4FC3F
:102D3000074604E0FFF7D0FCC01B02280FD8686AE2
:102D40008007F7D571484FF4FA510068B0FBF1F0F5
:102D5000009000BF0098411E0091FAD20EE080E082
:102D6000C0F80080FFF7B8FC074604E0FFF7B4FCAA
:102D7000C01B022875D8686A8007F7D420784007FE
:102D800060D5E8690027C00008D4E86940F08050A9
:102D9000E861E869012700F0805000905C48016814
:102DA000C90513D40168834641F480710160FFF7BF
:102DB00093FC824606E000BFFFF78EFCA0EB0A0002
:102DC00064284ED8DBF80000C005F5D5E06801287E
:102DD0000AD008B1052813D0286A20F00100286223
:102DE000286A20F0040002E0286A40F0010028620E
:102DF000E06841F2883B98B1FFF76EFC82460BE039
:102E0000286A40F004002862EEE700BFFFF764FC88
:102E1000A0EB0A0159455AD8286A8007F6D50CE07C
:102E2000FFF75AFC824605E0FFF756FCA0EB0A01CB
:102E300059454CD8286A8007F6D41FB1E86920F0BC
:102E40008050E861E06988B36968C1F381010229B3
:102E500044D00228C6F8608004D0FFF73DFC044649
:102E600038E034E0FFF738FC074604E0FFF734FCB5
:102E7000C01B02282BD828688001F7D4206AB0F53F
:102E8000803F05D16868A16820F40030084368607D
:102E9000D4E908010843696821F4741108436860A3
:102EA000C6F86090FFF718FC044606E025E000BF76
:102EB000FFF712FC001B022809D828688001F7D50B
:102EC0001BE000BFFFF708FC001B022802D903200B
:102ED000BDE8F88F28688001F4D40EE00128F7D00F
:102EE0006868226A00F48031914204D1616A00F47A
:102EF0007010884201D00120EAE70020E8E70000D6
:102F000000100240000042428004424218000020AB
:102F1000007000407047704770B590F83C20012A5F
:102F200026D0012480F83C40022280F83D2003682E
:102F30005A689D6822F070060A6832435A600D4B49
:102F400002689A4208D0B2F1804F05D00A4B9A42EB
:102F500002D00A4B9A4204D1496825F080031943F4
:102F6000916080F83D40002180F83C10084670BD1B
:102F7000022070BD002C0140000400400008004009
:102F800010B5040003D094F83D0010B107E0012013
:102F900010BD002084F83C00204600F01FF80220FD
:102FA00084F83D00211D206800F042FD012084F8D6
:102FB000460084F83E0084F83F0084F8400084F81E
:102FC000410084F8420084F8430084F8440084F807
:102FD000450084F83D00002010BD000008B50068E1
:102FE0000649884208D10648C16941F00201C16121
:102FF000C06900F00200009008BD0000000400401D
:103000000010024090F83D10012901D001207047C6
:10301000022180F83D1000680B49884208D0B0F1C9
:10302000804F05D00949884202D00949884204D11D
:10303000816801F00701062903D0016841F0010110
:103040000160002070470000002C01400004004097
:103050000008004090F83D10012901D00120704780
:10306000022180F83D100168CA6842F00102CA607E
:1030700000680B49884208D0B0F1804F05D009495B
:10308000884202D00849884204D1816801F00701D2
:10309000062903D0016841F001010160002070475A
:1030A000002C0140000400400008004070B50446B8
:1030B00090F83C000025012817D0012684F83C60D8
:1030C000022084F83D002068826822F0770222F412
:1030D0007F4282600868502838D00DDC20284FD00D
:1030E00005DC90B3102811D14AE0022070BD3028D1
:1030F00046D040280AD13BE060282FD070280DD060
:10310000B0F5805F03D0B0F5005F12D0012584F8E0
:103110003D60002084F83C00284670BDCB68D1E9B2
:103120000121206800F0C0FC2068816841F077012F
:1031300009E0CB68D1E90121206800F0B5FC2068E6
:10314000816841F480418160E1E719E0CA6849681B
:10315000206800F0BBFC5021206806E0CA6849687E
:10316000206800F0C4FC6021206800F0A7FCCEE7D6
:10317000CA684968206800F0A9FC40212068F4E78B
:10318000226801461046F0E770472DE9F0410446F9
:103190000068C66805694FF00007A90713D5B10795
:1031A00011D5F91E01610120207720688069800710
:1031B000204602D0FFF7E8FF04E000F07EF820464A
:1031C00000F07CF82777680716D5700714D52168BA
:1031D0006FF004000861022020772068806910F4F5
:1031E000407F204602D0FFF7CFFF04E000F065F8F3
:1031F000204600F063F82777280715D5300713D548
:1032000021686FF008000861042020772068C069F9
:103210008007204602D0FFF7B7FF04E000F04DF82A
:10322000204600F04BF82777E80616D5F00614D5AF
:1032300021686FF010000861082020772068C069BD
:1032400010F4407F204602D0FFF79EFF04E000F01C
:1032500034F8204600F032F82777E80708D0F00766
:1032600006D021686FF001000861204600F028F8C0
:10327000280608D5300606D521686FF08000086161
:103280002046FFF747FE680608D5700606D5216878
:103290006FF040000861204600F026F8A8060AD525
:1032A000B00608D521686FF0200008612046BDE80F
:1032B000F041FFF730BEBDE8F08170477047000075
:1032C00070B504460068064DA84201D1FFF70AFA1E
:1032D0002068A84203D103480168491C016070BD01
:1032E000000800400400002070477047704700004D
:1032F00000680349884202D10249012048707047A2
:103300000038014008000020F8B50168044608684C
:10331000CA684B6910F00F0F4FF0000559D003F049
:10332000010602F49077374365D0C10705D0D10577
:1033300003D5616C41F001016164410705D5D907EE
:1033400003D0616C41F002016164810705D5D907A2
:1033500003D0616C41F004016164010707D502F0FC
:103360002001314303D0616C41F008016164616C5C
:1033700000293AD0800604D5900602D5204600F0F8
:103380007BFC20684069616CC0F38010090700D4A1
:1033900060B3204600F0C5FB20684069400621D597
:1033A0002068143050E8001F21F0400140E800126E
:1033B000002AF5D1E06BA8B16D494163E06BFEF7DF
:1033C0003FFF002811D0E06B416B01B0BDE8F04039
:1033D000084783060FD593060DD52046BDE8F84073
:1033E00000F04ABC2046FFF781FFF8BD2046FFF7FA
:1033F0007DFF6564F8BD266B2023012E7CD1C606B7
:103400007AD5D60678D508684868009048694FF0A4
:103410000206400640D5E16B086840680004000CD5
:10342000E8D0A28D8242E5D9E085886920282DD098
:1034300020680C3050E8001F21F4807140E8001231
:10344000002AF5D12068143050E8001F21F0010156
:1034500040E80012002AF5D12068143050E8001F1F
:1034600021F0400140E80012002AF5D184F84230F2
:10347000256320680C3050E8001F21F0100140E85F
:103480000012002AF5D1E06BFEF7B6FE6663A08D50
:10349000E18D401A81B22AE0A08DE18D401A81B2FF
:1034A000E08D0028A6D00029A4D022680C3252E872
:1034B000000F20F4907042E80007002FF5D120683B
:1034C000143050E8002F22F0010240E80027002FBE
:1034D000F5D184F84230256320680C3050E8002F85
:1034E00022F0100240E80023002BF5D1666320464D
:1034F000FFF7FBFEF8BDFFE705062BD5150629D51E
:1035000094F841002128F5D1A068B0F5805F01D181
:103510002069B0B1206A411C2162216800784860AE
:10352000E08C401E0004000CE084E3D12068C168F8
:1035300021F08001C1602068C16841F04001C16094
:10354000D8E7206A0088C0F308004860206A801C21
:103550002062E5E74006CDD55006CBD5CA682046A7
:1035600022F04002CA6084F8413000F023F9C1E73C
:10357000133B000870B5040004D094F84100002506
:1035800010B106E0012070BD84F84050204600F0E4
:1035900023F8242084F841002068C16821F40051F8
:1035A000C160204600F0CAFB2068016921F4904107
:1035B00001612068416921F02A0141612068C168E8
:1035C00041F40051C1606564202084F8410084F812
:1035D00042006563002070BDF0B585B0002406464A
:1035E000009401940294039400682D49884254D1B8
:1035F0002C48816941F480418161816901F48041F5
:103600000491816941F0040181618069264D00F0D7
:10361000040004904FF400700090022001900320F9
:10362000039069462846FEF767FF2815CDE9000498
:10363000694628460294FEF75FFF1D4D1B48802710
:10364000C5E90004C5E902472C616C61AC612846FC
:10365000EC61FEF7EBFE08B1FEF782FBF5636E62EC
:10366000134D12484435143801C5102091C5104837
:1036700045F8104944306C61AC61EC61FEF7D6FE50
:1036800008B1FEF76DFBB5630022114625206E627E
:10369000FFF7BAF82520FFF7A9F805B0F0BD000044
:1036A000003801400010024000080140580002406C
:1036B0002040002090F84230202B01D0022070479B
:1036C00021B11AB10023036300F0AABB01207047A7
:1036D00000680D49884216D10D480C4A0178012333
:1036E000515C0D290ED00A290CD00178491C0170BB
:1036F0000178802906D20078111804480122803010
:10370000FFF7D8BF4370704700380140583F002092
:10371000080000202DE9F843044690F8410098463F
:1037200016460D46202802D00220BDE8F88385B158
:103730007EB100206064212084F84100FEF7CCFFB8
:10374000A6848146E684A0682027B0F5805F02D079
:1037500003E00120E9E7206910B12E4600250EE0C4
:1037600000260CE08021204600F086FBA8B9C6B1F7
:1037700016F8010B21684860E08C401EE084E08C64
:103780004B464FF00002CDF800800028EAD14FF000
:103790004001204600F070FB40B184F841700320E6
:1037A000C3E735F8020BC0F30800E3E784F8417083
:1037B0000020BAE77047FEE73EB5002111480091AE
:1037C00001910F4A02910260816001730175012429
:1037D0004FF400220461C2614160FEF7B1FB08B101
:1037E000FEF7BEFA0320CDE90004694605480294BD
:1037F000FEF724FB002801D0FEF7B2FA3EBD000020
:10380000002401409C3E0020114808B5416941F068
:10381000010141614069002200F001000090114661
:103820000B20FEF7F1FF0B20FEF7E0FF0022114610
:103830000E20FEF7E9FF0E20FEF7D8FF002211460A
:103840000F20FEF7E1FFBDE808400F20FEF7CEBFD6
:1038500000100240094808B5816941F020018161EA
:10386000816901F020010091816941F004018161C9
:10387000806900F00400009008BD000000100240C4
:1038800010B586B000241748009401940294039464
:1038900004941349059401604721C0E901140121F2
:1038A000C0E903148461FFF76BFB08B1FEF758FA17
:1038B0004FF48050009069460A48FFF7F7FB08B1C3
:1038C000FEF74EFA2020CDE9040404A90548FFF7CD
:1038D00023FB002801D0FEF743FA06B010BD00001C
:1038E00000040040103F002010B50E4C0C480C2185
:1038F00020604FF4E13060600020A060E060C4E927
:103900000401A061E0612046FFF734FE08B1FEF734
:1039100027FA2068C16841F01001C16010BD0000A5
:1039200000380140D83F0020FEE7FEE77047000066
:103930002DE9F043ADB016480090164B4FF4FA5203
:10394000154926A8FEF730F92A9800F0C3FB8046F7
:103950008946299800F0BEFB06460F46279800F0DE
:10396000B9FB04460D46269800F0B4FB8DE8F00341
:1039700002460B46094906A8FCF73CFC82B24FF010
:10398000FF3306A90648FFF7C5FE2DB0BDE8F0835A
:10399000333353400024F4481C0000202C47000817
:1039A000D83F00207047704730B593B02821684653
:1039B000FCF75AFE14210AA8FCF756FE0025012048
:1039C0000F9510951195010412958DE82300049030
:1039D0004FF4E010CDE90810022407946846FFF781
:1039E00009F908B172B6FEE70AA90F2081E8310093
:1039F0004FF48060CDE90D0502210AA8FEF7FEFF15
:103A000008B172B6FEE74FF4004011900F940FA872
:103A1000FEF77EFF002801D072B6FEE713B030BD7E
:103A2000704700000148FFF7B0BB0000A84000202D
:103A3000F0B50268194B1A4C1A4D4FF08047984266
:103A400005D0B84203D0A04201D0A84203D122F051
:103A500070064A683243984205D0B84203D0A0426B
:103A600001D0A84203D122F44074CA6822434C69B1
:103A700022F08002224302608A68C2620A6882627F
:103A8000984201D109690163012141610169C907B6
:103A900003D0016921F001010161F0BD002C01405A
:103AA000000400400008004010B5846842EA032288
:103AB00024F47F440A432243826010BD826822F0CE
:103AC00070020A4342F007018160704710B5036A33
:103AD000046A24F001040462846924F0F00444EAD6
:103AE000021423F00A020A438461026210BD10B579
:103AF000036A046A24F010040462846923F0A003BA
:103B000024F4704444EA023243EA01118261016202
:103B100010BD10B5406A0021C185C184FFF7E6FBE6
:103B200010BD01680C3151E8002F22F4907241E879
:103B30000023002BF5D10168143151E8002F22F049
:103B4000010241E80023002BF5D1016B012909D1C5
:103B500001680C3151E8002F22F0100241E80023E7
:103B6000002BF5D1202180F842100021016370471D
:103B700030B5264C93B02078002844D060780028D7
:103B800041D00025224802E02178491E2170217889
:103B90004554217859B12178014411F8011C0D29AF
:103BA000F2D02178014411F8011C0A29ECD0072237
:103BB00018A11748FCF7DBFC08B118A00AE0109523
:103BC00011AB10AA1CA112481195FCF7EDFB0228BD
:103BD00011D01DA000F040F96570257080210C48BF
:103BE000FCF742FD13B00A49BDE83040012201F163
:103BF0008000FFF75FBDDDE910231AA16846FCF7DE
:103C0000F9FA6846E6E713B030BD0000080000206E
:103C1000583F00206D656173757265004552524FC3
:103C2000523A20556E6B6E6F776E20636F6D6D61CB
:103C30006E640D0A000000006D6561737572652089
:103C400025752025750000004552524F523A2049F3
:103C50006E76616C696420706172616D6574657205
:103C6000730D0A004F4B3A206D65617375726520C4
:103C700025752025750D0A0008B590F842102229F7
:103C800001D0022008BD82684FF480539A4201D1CE
:103C9000016921B1816A9A421BD04AB10AE00268E7
:103CA000816A5268C2F308020A80816A891C08E0AE
:103CB000026972B10268526802F07F020A70816A7A
:103CC000491C8162C18D491E0904090CC18503D0BC
:103CD0001BE002685268F1E70168CA6822F020021E
:103CE000CA600168CA6822F48072CA6001684A69C1
:103CF00022F001024A61202180F842100021416334
:103D0000026B012A03D0FFF7E3FC002008BD01632A
:103D100001680C3151E8002F22F0100241E8002325
:103D2000002BF5D101680A68D20602D50A684968F5
:103D30000091818DFFF7D9FAE7E7000070B50446DE
:103D400000680169E26821F4405111430161216971
:103D5000A0680843616908432168CA6841F20C639E
:103D60009A430243CA6020684169A26921F4407104
:103D7000114341611E492068884202D1FEF704FFC9
:103D800001E0FEF7F1FE00EBC00101EB00126068FC
:103D900064218000B2FBF0F3B3FBF1F36FF018067F
:103DA0007343B2FBF0F5B2FBF0F605EB830532236B
:103DB00003EB0515B5FBF1F5B6FBF1F605F0F005E3
:103DC00005EB0615B2FBF0F6B2FBF0F0B0FBF1F03C
:103DD0006FF01802504306EB800003EB0010B0FBBD
:103DE000F1F0216800F00F002844886070BD0000E9
:103DF0000038014010B580210748FCF735FC074822
:103E00000021017041700449BDE81040012201F118
:103E10008000FFF74FBC0000583F00200800002042
:103E200081628285C28500214164222180F842108E
:103E3000016921B10168CA6842F48072CA600168F0
:103E40004A6942F001024A610068C16841F02001FC
:103E5000C16000207047000010B50446FCF768FB05
:103E6000214682B2BDE810404FF0FF330148FFF712
:103E700051BC0000D83F00202DE9F8439846174672
:103E80000D460446089E24E0701C22D0FEF724FC58
:103E9000A0EB0800B0421AD8CEB12068C16849072B
:103EA00017D5802D15D0402D13D00168C9430907BF
:103EB0000FD401680025406800902046FFF731FECE
:103EC0000820606484F840500120BDE8F883032096
:103ED000FBE72068006835EA000004D00020B84203
:103EE000D2D00020F1E70120F9E70000084808B52A
:103EF00000680168C90605D501684068009004485B
:103F0000FFF7F6F9BDE808400148FFF7FDB90000EA
:103F1000D83F0020FEE7490050EAC12018BF042026
:103F20004A0D18BF40F0010040F2FF72B2EB515F42
:103F300008BF40F00200012808BF052070470907AC
:103F4000090E002804DB00F1E02080F8001470471F
:103F500000F00F0000F1E02080F8141D70473038A9
:103F60000A2801D2012070470020704794B0FEF764
:103F7000C1FBFFF719FDFFF76DFCFFF745FCFFF7ED
:103F80001BFCFFF77DFCFFF7AFFC1F48FDF7EAFEC7
:103F90004FF0FF3468B91C221CA10DA8FCF732FBBE
:103FA0000DA8FCF7C5FA82B223460DA91E48FFF7FB
:103FB000B1FBFFF71FFF34221CA16846FCF722FB70
:103FC0006846FCF7B5FA82B2234669461648FFF701
:103FD000A1FB4FF4FA5222490B48FEF787F821481B
:103FE000FFF710F8204D2868204C20604FF47A76B7
:103FF000FFF7BEFD28682168401AB042F8D3286850
:104000002060FFF795FCF3E79C3E002041444320ED
:1040100043616C6962726174696F6E20436F6D7089
:104020006C6574650D0A0000D83F002053797374E5
:10403000656D20496E697469616C697A65642E20CA
:104040003130306B487A2053616D706C696E672C2B
:1040500020383030307074732F7365630D0A0000A0
:104060001C000020103F0020040000200000002061
:1040700010B500290AD00878002807D005487844F0
:10408000FDF7E0F8002801D0002010BD0248784478
:1040900010BD00001A0700001207000010B500292B
:1040A0000AD00878002807D005487844FDF7CAF8F8
:1040B000002801D0002010BD0248784410BD000047
:1040C0000A070000020700000808A0F500114FEAE7
:1040D0003101704743004FEAD30C4FEA3C0C434098
:1040E0001FBF40070CF1605113F0FE4F70471CF0EA
:1040F000006F03D100200CF0004170470CF000432A
:1041000043EA507010B540EACC0000F0E4F900BF7B
:10411000000000924FEA0001FFF7D6BF4FF00041C8
:104120004FF00000A1F500217047000090EA010F58
:1041300048BF81F0004100F12082421A3CBF801A42
:1041400089184FEAD0524FF07F4C1CEA410FA2EB86
:10415000D15318BF9CEA026F00F03B804FF0004C37
:104160004CEA00204CEA012121FA03FC10EB0C0C74
:104170001ED202F1FF325FEA1C2040EBC25038BF72
:1041800070471CF07F0F4FEA400C18BFBCF17F4F07
:1041900038BF7047C3F12003994008BF20F00100E9
:1041A000BCF17F4F38BF7047A0F1C04000F0D9B9D3
:1041B0004FEA3C00000A40EBC25028BF1CF0FF0F42
:1041C0004FEA400CE6D018BFBCF17F4F38BF7047B4
:1041D000EAE79CEA026F05D010EA5C0F08BF00F026
:1041E0000040704710B500F076F900BF64FBBE3E9A
:1041F0004FF47F0C1CEAD0121EBF1CEAD11392EAC6
:104200000C0F93EA0C0F00F0858090EA010F48BF75
:1042100042F4807240F4000C41F400002CF07F4125
:1042200020F07F4000B58142A2EB03020FF2081C90
:10423000ACEB504EC0F100009EF800E04FEA4E0E8D
:1042400000FB0EFC38BF49004FEA2C1C02F5FA02B5
:104250000CFB0EF34FEACE1E4FEA112C4FEAC121A0
:104260000EEB635E42EB22420EFB0CFC4FEA1C534A
:1042700000FB03114FEA112C4FEA01310EFB0CFC3D
:104280004FEADC4C00FB0C11C14228BF09184CEB73
:1042900003335DF804EB10EB410143EBC250B2F580
:1042A0007C0F38BF704729D512F0F00F1CBF00F10A
:1042B000C04000F00040704700818283848586877B
:1042C00088898B8C8D8E8F919293959697999A9CD5
:1042D0009D9FA0A2A3A5A7A8AAACAEB0B2B3B5B744
:1042E000B9BCBEC0C2C5C7C9CCCED1D4D7D9DCDF1A
:1042F000E2E6E9ECF0F3F7FAFE0000004FEA400CCA
:104300000CF1807CBCF17E4F28BF7047B0F1C040FB
:1043100000F027B990EA010F0CEAD11348BF42F42C
:104320008072624538BF634507D213F47F0F16D001
:1043300080EA010000F00040704710B500F0CBF8B3
:10434000097EFC3E00F005B880EA010000F0004064
:10435000704780EA010000F0004000F002B912F45A
:104360007F0F04BF0248704780EA010000F0F9B8EF
:104370000000C07F41000B0ED3F19E0208D950F41B
:1043800000034FEA032323FA02F048BF404270477C
:1043900010B500F0A0F800BF4992248000207047BB
:1043A0006FF0004282EA200070470000B0FA80F30C
:1043B00010FA03F2C3F19D030AD0D90501EB1220D4
:1043C000530638BF704700F1010008BF20F001001C
:1043D000704700004FF47F0C1CEAD0121EBF1CEA8D
:1043E000D11392EA0C0F93EA0C0F00F0478090EA89
:1043F000010F48BF42F480724FF0004C4CEA00209D
:104400004CEA012102EB0302A0FB0113A2F500021A
:10441000002918BF43F001035B0028BF4FEA3303B4
:1044200042EB22425FEA132C4CEBC2502EBFBCEB96
:10443000436FB2F57C0F70474FEA036CBCF1004F3D
:1044400008BF20F00100B2F57C0F38BF70470BD5D4
:1044500082F0FF0212F5803FC8BF704700F1C040F4
:10446000D8BF00F00040704700F5000C5FEA4C0C2C
:1044700048BF7047B0F1C04000F073B890EA010F38
:104480000CEAD11348BF42F48072624538BF6345DD
:1044900004D280EA010000F00040704710B500F03F
:1044A0001AF800BF8900013E00F007B800F009B813
:1044B0005FEA410C5FEA1C6C08D080EA010000F062
:1044C00050B85FEA400C5FEA1C6CF6D14FF0004038
:1044D000A0F5800070470EF1020E2EF0030E5EF87C
:1044E000044B244204D44FEA4102B2F17F4F11D869
:1044F0004FEA4003B3F17F4F0CD80ED14FEAD07C86
:10450000B2F17F4F0CEB4C0C0CF1020C08BF4CEBE2
:10451000D17C04E04FF0080C01E04FEAD17C0CEBB9
:104520004C0324FA03F404F00704B4F1040C06D29B
:104530000EEB840CBDE810404CF0010C6047DFE846
:104540000CF0070802024FF00040A0F5800010BDFB
:104550000846420018BFD2F1807288BF00F00040C8
:1045600010BDFF2141EAD050C005704790EA010F0D
:1045700048BF81F000413FF5E0AD421A04D882F017
:104580000042A0EB020011444FEAD0524FF07F4CA2
:104590001CEA410FA2EBD15318BF9CEA026F4AD02C
:1045A0004FF0004C4CEA00204CEA012121FA03FCB8
:1045B000B0EB0C0C0FD412F0FE0F36D05FEA4C00BB
:1045C0001DD5001240EBC25038BF70471CF03F0FA2
:1045D00018BF70470BE0A2F101025FEA1C2040EB1C
:1045E000C25038BF70471CF07F0F18BF7047C3F12F
:1045F0002003994014BF401E20F00100704780083E
:104600004FEA122308BF7047B0FA80FCA2EB0C02FD
:10461000CCF1280C60FA0CF093EA122F04BF00EBE7
:10462000C25070474FEAC3707047130A5FEADC104C
:1046300008BF7047F6E79CEA026F04D010EA5C0FEF
:1046400008BF0020704710B5FFF745FF40DFF63E7A
:1046500081F000407047FCF763B9010202030405D2
:10466000060708090A0B0C0D0E0F101001020203B9
:104670000405060708090A0B0C0D0E0F10100000A8
:104680000000000000000102030406070809000002
:10469000000001020304000002400000000000A02E
:1046A0000000000005400000000000C800000000FD
:1046B0000C4000000000409C000000001940000079
:1046C0000020BCBE0000000034400000BFC91B8EAB
:1046D00000000004B5400000504BCFD06607E2CF89
:1046E000010000006C4100003E8251AADFEEA734B9
:1046F00001000000D9420000DCB5A0E23A301F976B
:10470000FFFFFFFFB4450000FD25A0C8E9A3C14F8E
:10471000FFFFFFFFFF3F00000000008000000000DF
:10472000FF3F000000000080000000005B317320AC
:10473000436F6C6C656374696F6E5D204672657162
:104740003A20252E326620487A2C205670703A2066
:10475000252E336620562C20566D696E3A20252E64
:10476000336620562C20566D61783A20252E33660C
:1047700020560D0A00000000C44800080000002078
:104780001C00000028010008E04800081C00002070
:1047900034470000440100081C00000043000000F2
:1047A000F8FFFFFF0C0000000E0000000F000000EB
:1047B0002E0000001001000043000000F8FFFFFF82
:1047C0000040404040404040404041414141414024
:1047D00040404040404040404040404040404040D9
:1047E0004005020202020202020202020202020268
:1047F000022020202020202020202002020202026D
:1048000002029090909090901010101010101010C4
:1048100010101010101010101010101002020202D0
:104820000202888888888888080808080808080814
:104830000808080808080808080808080202020210
:104840004000000000000000000000000000000028
:104850000000000000000000000000000000000058
:104860000000000000000000000000000000000048
:104870000000000000000000000000000000000038
:104880000000000000000000000000000000000028
:104890000000000000000000000000000000000018
:1048A0000000000000000000000000000000000008
:1048B00000000000000000000000000000000000F8
:1048C00000000000000000000000000000000000E8
:1048D00001000000100000000000000000127A003B
:04000005080000ED02
:00000001FF
